:1000000028C042C041C040C03FC03EC03DC03CC00F
:100010003BC03AC039C076C037C036C035C034C0E6
:1000200080C032C05CC030C02FC02EC02DC02CC0DC
:100030002BC02AC056C1C5C1C4C1C3C1C2C1C1C140
:1000400060C164C186C190C1BCC196C1A0C1AAC132
:10005000AEC111241FBECFEFD2E0DEBFCDBF12E094
:10006000A0E0B1E0E8E8F7E002C005900D92A03012
:10007000B107D9F712E0A0E0B2E001C01D92A732AB
:10008000B107E1F7ECD27EC3BBCF80E98093C1001A
:1000900086E08093C20087E28093C40080E880936A
:1000A000C00008958FE087B98AB189748AB98BB18D
:1000B000806F8BB9089591E090936E0014BC85E039
:1000C00085BD16BC82E080936F009093800082E132
:1000D00080938100109285001092840008951F92F1
:1000E0000F920FB60F9211248F938091C6008093C8
:1000F000070281E0809300028F910F900FBE0F9056
:100100001F9018951F920F920FB60F9211248F9384
:1001100081E080931E028F910F900FBE0F901F9071
:1001200018951F920F920FB60F9211242F933F93A1
:100130004F935F936F937F938F939F93AF93BF93EF
:10014000EF93FF93809103028130A9F4809108021C
:100150008F5F80930802893070F0109208028091BE
:100160000D0290911802891720F0891B80930D02CF
:1001700002C010920D0280912002813009F057C018
:1001800080912302882309F452C060910C0270E030
:10019000660F771FFB01E050FF4F0190F081E02DCB
:1001A00090E0660F771F660F771F9C01E29FC001EA
:1001B000E39F900DF29F900D1124D0D29B0180916E
:1001C0001D024091050250910602882359F487E2EE
:1001D0004031580798F4240F351F309306022093BE
:1001E000050217C0CB0149968417950738F4461BC2
:1001F000570B50930602409305020BC080912602D4
:10020000813029F4F0930602E093050202C01092B7
:100210000D028091140290911502209105023091F7
:100220000602820F931F9093890080938800FF91AC
:10023000EF91BF91AF919F918F917F916F915F915E
:100240004F913F912F910F900FBE0F901F901895D7
:1002500080E88093C00008951092C0000895109225
:1002600001021092850010928400E0910402F0E0F7
:10027000EE0FFF1FE050FF4F8081918190930602A7
:10028000809305022091140230911502820F931F72
:1002900090938900809388009091250280910202BA
:1002A000891730F486958695869580930D0208957A
:1002B00096959695969590930D0208951092010249
:1002C00010920D020895109209028091220290E08E
:1002D000FC013197EF30F10508F073C0E65EFF4F87
:1002E000099480911A02813428F088E080931602E4
:1002F0008EE004C08EE0809316028DE0809324028D
:10030000089580911A02809302020895E0910C02F0
:10031000F0E0EE0FFF1FDF01A050BF4FE250FF4F94
:10032000208131818D919C91281B390B80911A027B
:1003300090E0AC01249FC001259F900D349F900D4B
:10034000112460EC70E00AD27093150260931402DD
:10035000089580911A02813420F081E08093030295
:10036000089510920302089580911A028695869549
:10037000869580931802089580911A02813420F0A6
:1003800081E08093200208951092200208958091C8
:100390001A02813420F081E080931D0208951092AA
:1003A0001D02089580911A0280932302089580917E
:1003B0001A02813420F081E0809326020895109281
:1003C000260208952091140230911502280F391F3A
:1003D0003093890020938800089510921F02609145
:1003E0000B02603490F1E0910C02F0E0EE0FFF1F81
:1003F000DF01A050BF4F4D915C91EC5FFE4F8081BB
:1004000091819A01281B390B862F90E0CF97BC0170
:10041000269FC001279F900D369F900D112426E046
:10042000969587952A95E1F7909312028093110291
:100430002091140230911502420F531F481B590B93
:10044000509389004093880008956F3399F1E091AB
:100450000C02E23078F1F0E0EE0FFF1FDF01A05058
:10046000BF4F4D915C91E450FF4F20813181241B9F
:10047000350B80E490E0861B9109BC01269FC001EA
:10048000279F900D369F900D112476E096958795C5
:100490007A95E1F790931202809311022091140251
:1004A00030911502420F531F480F591F5093890076
:1004B00040938800089530910002313009F08AC0DD
:1004C00020910702203F08F083C027FF24C0922F0D
:1004D0009F70809121029817D9F490931002822F77
:1004E000807F803951F0813918F4803889F408C050
:1004F000803B41F0803E61F409C03093170268C030
:1005000082E001C083E08093170262C084E0FBCFE9
:10051000109217025DC090911702923041F1933012
:1005200020F4913009F054C006C09330B9F19430F2
:1005300009F04EC040C080910102882399F090914B
:100540000402222331F02093250290930C0287DECF
:1005500012C080910C02981771F41092250210922B
:100560000D0209C0209304029093010214C08091EF
:100570000102882319F0109201020DC080910C0233
:10058000281721F41092010210920D0280910102AD
:100590008F5F80930102109207021AC080910902B6
:1005A000882321F020931A028EDE12C020932202AB
:1005B000309309020DC080911F02882319F0813009
:1005C00039F403C030931F0203C020930B0205DFF0
:1005D00010920002089580911E02882309F43EC003
:1005E00040910E0250910F02440F551F7091160258
:1005F0006091240281E090E09C01062E02C0220F4F
:10060000331F0A94E2F72423352302C03695279539
:100610006A95E2F7072E02C0880F991F0A94E2F745
:100620008423952302C0969587957A95E2F728272B
:1006300030E0242B352B30930F0220930E0288B12B
:10064000807F88B998B12170307080910D02829FAF
:10065000802D1124892B88B910921E020895F894D8
:100660008FE087B98AB189748AB98BB1806F8BB9F1
:1006700021E020936E0014BC85E085BD16BC82E0AD
:1006800080936F002093800082E18093810010921C
:1006900085001092840080E98093C10086E08093F9
:1006A000C20087E28093C40080E88093C00010926B
:1006B00001021092090210921F0210920002109281
:1006C00021028FE78093020289E190E090938900F4
:1006D000809388008DE0809316028EE08093240240
:1006E0008BE293ED90930F0280930E02109208021A
:1006F00010920D0220930302109218021092190218
:1007000010921502109214021092200210921D02F3
:100710001092230220932602789489B190E080956C
:100720009095807F907074E0959587957A95E1F724
:1007300080932102C0DE4FDFF0CF109207020895B0
:1007400089B190E080959095807F9070E4E09595D8
:100750008795EA95E1F7809321020895AA1BBB1BB8
:1007600051E107C0AA1FBB1FA617B70710F0A61BB1
:10077000B70B881F991F5A95A9F780959095BC01D2
:08078000CD010895F894FFCFAC
:10078800A74A77468242C73E413BED37CA34D33148
:10079800072F642CE6298C2754253B234121631F0E
:1007A800A01DF71B651AEA1884173216F314C6132E
:1007B800AA129E11A110B20FD00EFB0D320D750CAE
:1007C800C20B190B790AE3095509CF085008D90754
:1007D8006807FE0699063A06E1058C053D05F10411
:1007E800AA0467042804EC03B4037F034D031D0324
:1007F800F002C6029E027902550234021402F60182
:10080800DA01BF01A6018F01780163014F013C01A4
:100818002B011A010A01FB00ED00E000D300C7001C
:10082800BC00B200A8009E0095008D0085007E00E7
:10083800770070006A0064005E00590054004F00A1
:100848004B00460043003F003B00380035003200B3
:100858002F002C002A0028002500230021001F005B
:100868001E001C001A0019001800160015001400BC
:1008780013001200110010000F000E000D000C00F4
:00000001FF
