:1000000028C042C041C040C03FC03EC03DC03CC00F
:100010003BC03AC039C076C084C036C035C034C099
:100020008BC032C05CC030C02FC02EC02DC02CC0D1
:100030002BC02AC05BC1D1C1D0C1CFC1CEC1CDC1FF
:100040005BC169C192C19CC1C8C1A2C1ACC1B6C1EA
:10005000BAC111241FBECFEFD2E0DEBFCDBF12E088
:10006000A0E0B1E0E0E8F7E002C005900D92A0301A
:10007000B107D9F712E0A0E0B2E001C01D92A332AF
:10008000B107E1F7E1D27AC3BBCF80E98093C10029
:1000900086E08093C20087E28093C40080E880936A
:1000A000C00008958FEF87B98AB189748AB98BB17E
:1000B000806F8BB9089591E090936E0014BC85E039
:1000C00085BD16BC86E080936F009093800083E12D
:1000D00080938100109285001092840008951F92F1
:1000E0000F920FB60F9211248F938091C6008093C8
:1000F000070281E0809300028F910F900FBE0F9056
:100100001F9018951F920F920FB60F9211248F9384
:1001100080910C0288B98F910F900FBE0F901F90A5
:1001200018951F920F920FB60F92112418B80F90C6
:100130000FBE0F901F9018951F920F920FB60F923F
:1001400011242F933F934F935F936F937F938F93DC
:100150009F93AF93BF93EF93FF932091120230913F
:1001600013022E5F3F4F30931302209312028091AF
:1001700003028130A1F440911502842F90E02817EA
:10018000390768F04F3358F480910C02882319F036
:10019000815080930C0210921302109212028091EF
:1001A0001C02813009F054C020911F02222309F45F
:1001B0004FC060910B0270E0660F771FFB01E050AB
:1001C000FF4F0190F081E02D80E090E2C4D2CF019A
:1001D000AED2822F90E0689FA001699F500D789F5A
:1001E000500D112480911A022091050230910602CF
:1001F000882359F483E22832380788F4420F531FCA
:10020000509306024093050215C04217530738F475
:10021000241B350B30930602209305020BC08091FE
:100220002202813029F4F0930602E093050202C015
:1002300010920C02809110029091110220910502FF
:1002400030910602820F931F90938900809388005B
:10025000FF91EF91BF91AF919F918F917F916F919E
:100260005F914F913F912F910F900FBE0F901F9074
:10027000189580E88093C00008951092C0000895FA
:100280001092010210920C02089590912002892F81
:1002900081538F3248F4809188009091890096951F
:1002A00087959695879508C0913658F0809188007B
:1002B000909189009695879590938B0080938A0002
:1002C000089510928B0010928A0008950F931F9347
:1002D0001092080280911E0290E0FC013197EF30ED
:1002E000F10508F07AC0E65EFF4F0994809117028D
:1002F00080932002CADF71C090911702969596955F
:1003000096959093020280910C02981708F065C0B0
:1003100090930C0262C0E0910B02F0E0EE0FFF1F21
:10032000DF01A050BF4F0D911C91E250FF4F208183
:100330003181201B310B8091170290E0AC01249F8A
:10034000C001259F900D349F900D112460EC70E04A
:10035000EED1CB017093110260931002800F911FB8
:10036000909389008093880038C08091170281346F
:1003700020F081E08093030230C0109203022DC070
:1003800090911702969580E4891B8093150225C0F1
:1003900080911702813420F081E080931C021DC0FF
:1003A00010921C021AC080911702813420F081E063
:1003B00080931A0212C010921A020FC08091170285
:1003C00080931F020AC080911702813420F081E0DF
:1003D0008093220202C0109222021F910F91089571
:1003E000109201021092850010928400E0910B029D
:1003F000F0E0EE0FFF1FE050FF4F8081918190935E
:100400000602809305022091100230911102820FA2
:10041000931F909389008093880037DF8091210299
:1004200086958695869580930C02882319F481E041
:1004300080930C029091020280910C02981710F4A4
:1004400090930C0208952091100230911102280F10
:10045000391F3093890020938800089510921B0261
:1004600060910A02603490F1E0910B02F0E0EE0F2F
:10047000FF1FDF01A050BF4F4D915C91EC5FFE4F1D
:10048000808191819A01281B390B862F90E0CF97AC
:10049000BC01269FC001279F900D369F900D11240F
:1004A00026E0969587952A95E1F790930F02809321
:1004B0000E022091100230911102420F531F481B6F
:1004C000590B509389004093880008956F3399F138
:1004D000E0910B02E23078F1F0E0EE0FFF1FDF0158
:1004E000A050BF4F4D915C91E450FF4F208131816E
:1004F000241B350B80E490E0861B9109BC01269FEC
:10050000C001279F900D369F900D112476E096959F
:1005100087957A95E1F790930F0280930E022091D0
:10052000100230911102420F531F480F591F509370
:10053000890040938800089530910002313009F01D
:1005400082C020910702203F08F07BC027FF24C013
:10055000922F9F7080911D029817D9F490930D02ED
:10056000822F807F803951F0813918F4803889F4E6
:1005700008C0803B41F0803E61F409C03093140212
:1005800060C082E001C083E0809314025AC084E01E
:10059000FBCF1092140255C0909114029230F9F0E2
:1005A000933020F4913009F04CC006C0933079F1BB
:1005B000943009F046C038C080910102882351F080
:1005C00090910402222389F02093210290930B0240
:1005D00007DF13C0209304029093010215C080919D
:1005E0000102882369F09091040280910B02981710
:1005F00021F41092210210920C021092010204C008
:100600002093040230930102109207021AC08091D5
:100610000802882321F02093170258DE12C020938D
:100620001E02309308020DC080911B02882319F02E
:10063000813039F403C030931B0203C020930A02B7
:100640000DDF109200020895F8943FEF37B98AB198
:1006500089748AB98BB1806F8BB991E090936E00E9
:1006600014BC85E085BD16BC26E020936F009093F6
:10067000800083E1809381001092850010928400B5
:1006800080E98093C1002093C20087E28093C40078
:1006900080E88093C000109201021092080210922C
:1006A0001B021092000210921D0290E49093090226
:1006B00090930A028FE78093020238B910920C02DD
:1006C0001092110210921002109220021092030256
:1006D0009093150210921C0210921A0210921F029F
:1006E000109222021092130210921202789489B191
:1006F00090E080959095807F907054E095958795D7
:100700005A95E1F780931D0217DFF1CF109207028F
:10071000089589B190E080959095807F907064E015
:10072000959587956A95E1F780931D020895AA1B18
:10073000BB1B51E107C0AA1FBB1FA617B70710F0CC
:10074000A61BB70B881F991F5A95A9F780959095FE
:10075000BC01CD01089597FB092E07260AD077FD2D
:1007600004D0E5DF06D000201AF4709561957F4F24
:100770000895F6F7909581959F4F0895F894FFCFCF
:10078000A74A77468242C73E413BED37CA34D33150
:10079000072F642CE6298C2754253B234121631F16
:1007A000A01DF71B651AEA1884173216F314C61336
:1007B000AA129E11A110B20FD00EFB0D320D750CB6
:1007C000C20B190B790AE3095509CF085008D9075C
:1007D0006807FE0699063A06E1058C053D05F10419
:1007E000AA0467042804EC03B4037F034D031D032C
:1007F000F002C6029E027902550234021402F6018A
:10080000DA01BF01A6018F01780163014F013C01AC
:100810002B011A010A01FB00ED00E000D300C70024
:10082000BC00B200A8009E0095008D0085007E00EF
:10083000770070006A0064005E00590054004F00A9
:100840004B00460043003F003B00380035003200BB
:100850002F002C002A0028002500230021001F0063
:100860001E001C001A0019001800160015001400C4
:1008700013001200110010000F000E000D000C00FC
:00000001FF
