:1000000019C033C032C031C030C02FC02EC02DC087
:100010002CC02BC02AC067C028C027C026C025C05E
:100020009DC023C04DC021C020C01FC01EC01DC028
:100030001CC01BC011241FBECFEFD2E0DEBFCDBF5E
:1000400012E0A0E0B1E0ECE2F7E002C005900D9212
:10005000A030B107D9F712E0A0E0B2E001C01D92D4
:10006000A032B107E1F7D5D25FC3CACF80E9809350
:10007000C10086E08093C20087E28093C40080E8DC
:100080008093C00008958FE087B98AB18F708AB9D4
:100090008BB1806F8BB9089591E090936E0014BC82
:1000A00085E085BD16BC82E080936F009093800050
:1000B00081E1809381001092850010928400089560
:1000C0001F920F920FB60F9211248F938091C6004A
:1000D0008093060281E0809300028F910F900FBE03
:1000E0000F901F9018951F920F920FB60F92112428
:1000F0002F938F939F9380911302813039F58091D4
:1001000014028F5F80931402803210F01092140258
:1001100020911402822F90E080719070689413F8FF
:10012000959587951694E1F7982F813019F480EF13
:10013000282701C0209520930B029295907F8091F3
:100140000B028F7E982B90930B0298B99F918F9101
:100150002F910F900FBE0F901F9018951F920F9226
:100160000FB60F9211242F933F934F935F936F938A
:100170007F938F939F93AF93BF93EF93FF93809160
:100180001B02813009F06DC020911E02222309F468
:1001900068C080911302813009F063C08091110220
:1001A000909112020196909312028093110202978D
:1001B00008F457C060910A0270E0660F771FFB01D8
:1001C000E050FF4F0190F081E02D822F90E0660F0C
:1001D000771F660F771F9C01E29FC001E39F900D80
:1001E000F29F900D11248CD29B01809119024091B5
:1001F000040250910502882359F48AE448335807D1
:1002000098F4240F351F309305022093040217C081
:10021000CB01CC968417950738F4461B570B5093A7
:100220000502409304020BC080911F02813029F423
:10023000F0930502E093040202C010920B02809139
:100240000F02909110022091040230910502820F5A
:10025000931F90938900809388001092120210924D
:100260001102FF91EF91BF91AF919F918F917F917B
:100270006F915F914F913F912F910F900FBE0F9013
:100280001F90189580E88093C00008951092C000D8
:100290000895109201021092850010928400E0915E
:1002A0000302F0E0EE0FFF1FE050FF4F80819181CD
:1002B000909305028093040220910F023091100266
:1002C000820F931F909389008093880081E0809330
:1002D00013020895109201021092130208950F93D1
:1002E0001F931092070280911D028C3009F440C0C8
:1002F0008D3030F4873069F0883009F066C00EC068
:100300008E3009F44BC08E30F0F18F3009F05DC0B3
:1003100052C0809116028093020257C0E0910A02F7
:10032000F0E0EE0FFF1FDF01A050BF4F0D911C91B9
:10033000E250FF4F20813181201B310B809116024A
:1003400090E0AC01249FC001259F900D349F900D3B
:10035000112460EC70E0D4D1CB0170931002609353
:100360000F02800F911F90938900809388002DC009
:1003700080911602813420F081E080931B0225C019
:1003800010921B0222C080911602813420F081E07D
:10039000809319021AC01092190217C020911602F8
:1003A00020931E02922F990F990F80E090938B005B
:1003B00080938A000AC080911602813420F081E087
:1003C00080931F0202C010921F021F910F91089587
:1003D00020910F0230911002280F391F30938900AD
:1003E00020938800089510921A02609109026034E7
:1003F00090F1E0910A02F0E0EE0FFF1FDF01A05044
:10040000BF4F4D915C91EC5FFE4F808191819A01CD
:10041000281B390B862F90E0CF97BC01269FC00187
:10042000279F900D369F900D112426E09695879575
:100430002A95E1F790930E0280930D0220910F020E
:1004400030911002420F531F481B590B50938900E3
:100450004093880008956F3399F1E0910A02E230E9
:1004600078F1F0E0EE0FFF1FDF01A050BF4F4D917C
:100470005C91E450FF4F20813181241B350B80E4D7
:1004800090E0861B9109BC01269FC001279F900D1B
:10049000369F900D112476E0969587957A95E1F731
:1004A00090930E0280930D0220910F023091100262
:1004B000420F531F480F591F5093890040938800E3
:1004C000089530910002313009F0A2C090910602E7
:1004D000903F08F09BC097FF24C0292F2F70809178
:1004E0001C022817D9F420930C02892F807F8039B1
:1004F00051F0813918F4803889F408C0803B41F00C
:10050000803E61F409C03093150280C082E001C0D2
:1005100083E0809315027AC084E0FBCF109215022D
:1005200075C040911502423009F43FC0433020F4B9
:10053000413009F06BC007C0433009F44DC044306E
:1005400009F064C056C080910102882349F1E0910E
:1005500003029923F1F0E0930A02109285001092B1
:100560008400F0E0EE0FFF1FE050FF4F808191818B
:10057000909305028093040220910F0230911002A3
:10058000820F931F909389008093880040931302F9
:1005900010C080910A02E81761F41092130209C09A
:1005A000909303024093010214C0809101028823BA
:1005B00019F0109201020DC080910A02981721F4DF
:1005C0001092010210921302809101028F5F8093BA
:1005D0000102109206021AC080910702882321F0BE
:1005E000909316027CDE12C090931D023093070296
:1005F0000DC080911A02882319F0813039F403C0AC
:1006000030931A0203C090930902EDDE10920002AB
:100610000895F8948FE087B98AB18F708AB98BB149
:10062000806F8BB921E020936E0014BC85E085BDFE
:1006300016BC82E080936F002093800081E180935C
:100640008100109285001092840080E98093C1009F
:1006500086E08093C20087E28093C40080E88093A4
:10066000C0008FEF85B984EF91E09093890080936B
:10067000880080E4809309028093080210920102AE
:100680001092070210921A021092000210921C029D
:100690008FE78093020210920B02109210021092C8
:1006A0000F021092130220931B0220931902109242
:1006B0001E0220931F0210921202109211027894CF
:1006C00089B190E080959095807F907064E09595D9
:1006D00087956A95E1F780931C02F3DEF1CF1092C3
:1006E0000602089589B190E080959095807F907082
:1006F00074E0959587957A95E1F780931C020895AB
:10070000AA1BBB1B51E107C0AA1FBB1FA617B70737
:1007100010F0A61BB70B881F991F5A95A9F7809553
:0C0720009095BC01CD010895F894FFCF26
:10072C004F95EE8C05858E7D8276DB6F9469A76381
:10073C000F5EC858CC53184FA84A77468342C73E21
:10074C00413BEE37CA34D431082F642CE6298C2770
:10075C0054253C234221641FA11DF71B651AEA187E
:10076C0084173216F314C613AA129E11A110B20FDD
:10077C00D10EFC0D330D750CC20B190B7A0AE30963
:10078C005509CF085108D9076907FE069A063B069A
:10079C00E1058D053D05F204AB0468042904ED0365
:1007AC00B5037F034D031E03F102C7029F027902BA
:1007BC00560234021502F701DB01C001A7018F01BB
:1007CC007901640150013D012B011A010B01FC0060
:1007DC00EE00E000D400C800BD00B200A8009F00ED
:1007EC0096008D0086007E00770070006A00640021
:1007FC005F005900540050004B00470043003F007D
:10080C003C0038003500320030002D002A00280052
:10081C0026002400220020001E001C001B001900D2
:00000001FF
